{
  "_format": "hh-sol-artifact-1",
  "contractName": "EvenOdd",
  "sourceName": "contracts/EvenOdd.sol",
  "abi": [
    {
      "inputs": [
        {
          "internalType": "address",
          "name": "_dealer",
          "type": "address"
        },
        {
          "internalType": "address",
          "name": "_ticketAddress",
          "type": "address"
        },
        {
          "internalType": "address",
          "name": "_tokenCASH",
          "type": "address"
        }
      ],
      "stateMutability": "nonpayable",
      "type": "constructor"
    },
    {
      "anonymous": false,
      "inputs": [
        {
          "indexed": false,
          "internalType": "uint256",
          "name": "rollId",
          "type": "uint256"
        },
        {
          "indexed": false,
          "internalType": "address",
          "name": "player",
          "type": "address"
        },
        {
          "indexed": false,
          "internalType": "uint256",
          "name": "amount",
          "type": "uint256"
        },
        {
          "indexed": false,
          "internalType": "bool",
          "name": "isEven",
          "type": "bool"
        }
      ],
      "name": "Bet",
      "type": "event"
    },
    {
      "anonymous": false,
      "inputs": [
        {
          "indexed": false,
          "internalType": "uint256",
          "name": "rollId",
          "type": "uint256"
        },
        {
          "indexed": false,
          "internalType": "uint8",
          "name": "diceNumber_1",
          "type": "uint8"
        },
        {
          "indexed": false,
          "internalType": "uint8",
          "name": "diceNumber_2",
          "type": "uint8"
        },
        {
          "indexed": false,
          "internalType": "bool",
          "name": "isEven",
          "type": "bool"
        }
      ],
      "name": "DiceRolled",
      "type": "event"
    },
    {
      "anonymous": false,
      "inputs": [
        {
          "indexed": true,
          "internalType": "address",
          "name": "previousOwner",
          "type": "address"
        },
        {
          "indexed": true,
          "internalType": "address",
          "name": "newOwner",
          "type": "address"
        }
      ],
      "name": "OwnershipTransferred",
      "type": "event"
    },
    {
      "anonymous": false,
      "inputs": [
        {
          "indexed": true,
          "internalType": "uint256",
          "name": "amount",
          "type": "uint256"
        }
      ],
      "name": "Withdraw",
      "type": "event"
    },
    {
      "inputs": [],
      "name": "_cash",
      "outputs": [
        {
          "internalType": "contract ITokenCash",
          "name": "",
          "type": "address"
        }
      ],
      "stateMutability": "view",
      "type": "function"
    },
    {
      "inputs": [],
      "name": "_ticket",
      "outputs": [
        {
          "internalType": "contract IMasterCard",
          "name": "",
          "type": "address"
        }
      ],
      "stateMutability": "view",
      "type": "function"
    },
    {
      "inputs": [
        {
          "internalType": "bool",
          "name": "_isEven",
          "type": "bool"
        },
        {
          "internalType": "uint256",
          "name": "amount",
          "type": "uint256"
        }
      ],
      "name": "bet",
      "outputs": [],
      "stateMutability": "nonpayable",
      "type": "function"
    },
    {
      "inputs": [
        {
          "internalType": "address",
          "name": "_account",
          "type": "address"
        }
      ],
      "name": "getBetAmountOf",
      "outputs": [
        {
          "internalType": "uint256",
          "name": "",
          "type": "uint256"
        }
      ],
      "stateMutability": "view",
      "type": "function"
    },
    {
      "inputs": [],
      "name": "getDealerBalance",
      "outputs": [
        {
          "internalType": "uint256",
          "name": "",
          "type": "uint256"
        }
      ],
      "stateMutability": "view",
      "type": "function"
    },
    {
      "inputs": [
        {
          "internalType": "address",
          "name": "_account",
          "type": "address"
        }
      ],
      "name": "getPlayerInfo",
      "outputs": [
        {
          "internalType": "uint256",
          "name": "betAmount",
          "type": "uint256"
        },
        {
          "internalType": "bool",
          "name": "isEven",
          "type": "bool"
        }
      ],
      "stateMutability": "view",
      "type": "function"
    },
    {
      "inputs": [
        {
          "internalType": "address",
          "name": "_account",
          "type": "address"
        }
      ],
      "name": "isAlreadyBet",
      "outputs": [
        {
          "internalType": "bool",
          "name": "",
          "type": "bool"
        }
      ],
      "stateMutability": "view",
      "type": "function"
    },
    {
      "inputs": [],
      "name": "owner",
      "outputs": [
        {
          "internalType": "address",
          "name": "",
          "type": "address"
        }
      ],
      "stateMutability": "view",
      "type": "function"
    },
    {
      "inputs": [
        {
          "internalType": "address",
          "name": "",
          "type": "address"
        }
      ],
      "name": "players",
      "outputs": [
        {
          "internalType": "uint256",
          "name": "betAmount",
          "type": "uint256"
        },
        {
          "internalType": "address",
          "name": "player",
          "type": "address"
        },
        {
          "internalType": "bool",
          "name": "isEven",
          "type": "bool"
        }
      ],
      "stateMutability": "view",
      "type": "function"
    },
    {
      "inputs": [
        {
          "internalType": "uint256",
          "name": "",
          "type": "uint256"
        }
      ],
      "name": "playersArray",
      "outputs": [
        {
          "internalType": "address",
          "name": "",
          "type": "address"
        }
      ],
      "stateMutability": "view",
      "type": "function"
    },
    {
      "inputs": [],
      "name": "renounceOwnership",
      "outputs": [],
      "stateMutability": "nonpayable",
      "type": "function"
    },
    {
      "inputs": [],
      "name": "rollDice",
      "outputs": [],
      "stateMutability": "nonpayable",
      "type": "function"
    },
    {
      "inputs": [],
      "name": "rollId",
      "outputs": [
        {
          "internalType": "uint256",
          "name": "",
          "type": "uint256"
        }
      ],
      "stateMutability": "view",
      "type": "function"
    },
    {
      "inputs": [],
      "name": "totalBetAmount",
      "outputs": [
        {
          "internalType": "uint256",
          "name": "",
          "type": "uint256"
        }
      ],
      "stateMutability": "view",
      "type": "function"
    },
    {
      "inputs": [],
      "name": "totalBetAmountPerRoll",
      "outputs": [
        {
          "internalType": "uint256",
          "name": "",
          "type": "uint256"
        }
      ],
      "stateMutability": "view",
      "type": "function"
    },
    {
      "inputs": [
        {
          "internalType": "uint256",
          "name": "amount",
          "type": "uint256"
        }
      ],
      "name": "transfer",
      "outputs": [],
      "stateMutability": "nonpayable",
      "type": "function"
    },
    {
      "inputs": [
        {
          "internalType": "address",
          "name": "newOwner",
          "type": "address"
        }
      ],
      "name": "transferOwnership",
      "outputs": [],
      "stateMutability": "nonpayable",
      "type": "function"
    },
    {
      "inputs": [
        {
          "internalType": "uint256",
          "name": "_amount",
          "type": "uint256"
        }
      ],
      "name": "withdraw",
      "outputs": [],
      "stateMutability": "nonpayable",
      "type": "function"
    }
  ],
  "bytecode": "0x60c060405260016006553480156200001657600080fd5b50604051620018c0380380620018c0833981016040819052620000399162000182565b6200004d620000476200007c565b62000080565b600180556200005c83620000d0565b6001600160601b0319606092831b811660a052911b166080525062000246565b3390565b600080546001600160a01b038381166001600160a01b0319831681178455604051919092169283917f8be0079c531659141344cd1fd0a4f28419497f9722a3daafe3b4186f6b6457e09190a35050565b620000da6200007c565b6001600160a01b0316620000ed62000156565b6001600160a01b0316146200011f5760405162461bcd60e51b8152600401620001169062000211565b60405180910390fd5b6001600160a01b038116620001485760405162461bcd60e51b81526004016200011690620001cb565b620001538162000080565b50565b6000546001600160a01b031690565b80516001600160a01b03811681146200017d57600080fd5b919050565b60008060006060848603121562000197578283fd5b620001a28462000165565b9250620001b26020850162000165565b9150620001c26040850162000165565b90509250925092565b60208082526026908201527f4f776e61626c653a206e6577206f776e657220697320746865207a65726f206160408201526564647265737360d01b606082015260800190565b6020808252818101527f4f776e61626c653a2063616c6c6572206973206e6f7420746865206f776e6572604082015260600190565b60805160601c60a05160601c611616620002aa600039600081816104910152818161054d015281816105ee015261097f0152600081816102bc01528181610368015281816107bb01528181610c5301528181610dc30152610e9b01526116166000f3fe608060405234801561001057600080fd5b50600436106101165760003560e01c8063715018a6116100a2578063aac023ad11610071578063aac023ad146101f8578063c1086b7314610200578063ddad6d4f14610208578063e2eb41ff14610228578063f2fde38b1461024a57610116565b8063715018a6146101cd578063837e7cc6146101d55780638da5cb5b146101dd5780639bd7e421146101e557610116565b806359328401116100e957806359328401146101745780635cc1b40c14610195578063613f4594146101a857806362d54389146101bd57806366966e8f146101c557610116565b806312514bba1461011b57806322b80ff8146101305780632e1a7d4d1461014e5780635229a6fd14610161575b600080fd5b61012e610129366004611108565b61025d565b005b610138610366565b6040516101459190611167565b60405180910390f35b61012e61015c366004611108565b61038a565b61012e61016f3660046110dd565b61044f565b61018761018236600461109a565b61091e565b6040516101459291906114b1565b6101386101a3366004611108565b61094d565b6101b0610977565b6040516101459190611461565b61013861097d565b6101b06109a1565b61012e6109a7565b61012e6109f2565b610138610c0f565b6101b06101f336600461109a565b610c1e565b6101b0610c39565b6101b0610cdd565b61021b61021636600461109a565b610ce3565b60405161014591906111b8565b61023b61023636600461109a565b610d00565b6040516101459392919061146a565b61012e61025836600461109a565b610d2e565b610265610d9c565b6001600160a01b0316610276610c0f565b6001600160a01b0316146102a55760405162461bcd60e51b815260040161029c906113be565b60405180910390fd5b6040516323b872dd60e01b81526001600160a01b037f000000000000000000000000000000000000000000000000000000000000000016906323b872dd906102f59033903090869060040161117b565b602060405180830381600087803b15801561030f57600080fd5b505af1158015610323573d6000803e3d6000fd5b505050506040513d601f19601f8201168201806040525081019061034791906110c1565b6103635760405162461bcd60e51b815260040161029c90611293565b50565b7f000000000000000000000000000000000000000000000000000000000000000081565b610392610d9c565b6001600160a01b03166103a3610c0f565b6001600160a01b0316146103c95760405162461bcd60e51b815260040161029c906113be565b600081116103e95760405162461bcd60e51b815260040161029c9061142a565b6103f1610c39565b8111156104105760405162461bcd60e51b815260040161029c906111c3565b61042161041b610d9c565b82610da0565b60405181907f5b6b431d4476a211bb7d41c20d1aab9ae2321deee0d20be3d9fc9b1093fa6e3d90600090a250565b600260015414156104725760405162461bcd60e51b815260040161029c906113f3565b60026001556040516370a0823160e01b81526000906001600160a01b037f000000000000000000000000000000000000000000000000000000000000000016906370a08231906104c6903390600401611167565b60206040518083038186803b1580156104de57600080fd5b505afa1580156104f2573d6000803e3d6000fd5b505050506040513d601f19601f820116820180604052508101906105169190611120565b116105335760405162461bcd60e51b815260040161029c9061132e565b604051632f745c5960e01b81526000906001600160a01b037f00000000000000000000000000000000000000000000000000000000000000001690632f745c5990610584903390859060040161119f565b60206040518083038186803b15801561059c57600080fd5b505afa1580156105b0573d6000803e3d6000fd5b505050506040513d601f19601f820116820180604052508101906105d49190611120565b60405163089dd4b160e31b81529091506001600160a01b037f000000000000000000000000000000000000000000000000000000000000000016906344eea58890610623908490600401611461565b60206040518083038186803b15801561063b57600080fd5b505afa15801561064f573d6000803e3d6000fd5b505050506040513d601f19601f820116820180604052508101906106739190611120565b42106106915760405162461bcd60e51b815260040161029c90611263565b61069c610216610d9c565b156106b95760405162461bcd60e51b815260040161029c90611309565b600082116106d95760405162461bcd60e51b815260040161029c90611378565b6106e1610c39565b826005546106ef91906114e2565b6106fa90600261151f565b11156107185760405162461bcd60e51b815260040161029c906112c2565b6040518060600160405280838152602001610731610d9c565b6001600160a01b0316815260200184151581525060036000610751610d9c565b6001600160a01b0390811682526020808301939093526040918201600020845181559284015160019093018054948301511515600160a01b0260ff60a01b199483166001600160a01b0319909616959095179390931693909317909155516323b872dd60e01b81527f0000000000000000000000000000000000000000000000000000000000000000909116906323b872dd906107f69033903090879060040161117b565b602060405180830381600087803b15801561081057600080fd5b505af1158015610824573d6000803e3d6000fd5b505050506040513d601f19601f8201168201806040525081019061084891906110c1565b6108645760405162461bcd60e51b815260040161029c90611293565b600261086e610d9c565b81546001810183556000928352602083200180546001600160a01b0319166001600160a01b0392909216919091179055600480548492906108b09084906114e2565b9250508190555081600560008282546108c991906114e2565b90915550506006547fe75d2d08c72f43db2c67834349ea67dbf8e9a54b1aa753ad63e8c31a5bdd9599906108fb610d9c565b848660405161090d949392919061148b565b60405180910390a150506001805550565b6001600160a01b0316600090815260036020526040902080546001909101549091600160a01b90910460ff1690565b6002818154811061095d57600080fd5b6000918252602090912001546001600160a01b0316905081565b60045481565b7f000000000000000000000000000000000000000000000000000000000000000081565b60065481565b6109af610d9c565b6001600160a01b03166109c0610c0f565b6001600160a01b0316146109e65760405162461bcd60e51b815260040161029c906113be565b6109f06000610f2c565b565b6109fa610d9c565b6001600160a01b0316610a0b610c0f565b6001600160a01b031614610a315760405162461bcd60e51b815260040161029c906113be565b600060055411610a535760405162461bcd60e51b815260040161029c90611239565b6000610a5f6001610f7c565b90506000610a6d6002610f7c565b905060006002610a7d83856114fa565b610a879190611584565b60ff1660001490507f0f7103446bf4fcea930355a367b5d4858188b514a4cfa50f9fb58f40279de3d1600654848484604051610ac694939291906114c1565b60405180910390a160005b600254811015610bec578115156003600060028481548110610b0357634e487b7160e01b600052603260045260246000fd5b60009182526020808320909101546001600160a01b0316835282019290925260400190206001015460ff600160a01b9091041615151415610bda57610bda60028281548110610b6257634e487b7160e01b600052603260045260246000fd5b9060005260206000200160009054906101000a90046001600160a01b03166003600060028581548110610ba557634e487b7160e01b600052603260045260246000fd5b60009182526020808320909101546001600160a01b03168352820192909252604001902054610bd590600261151f565b610da0565b80610be481611555565b915050610ad1565b50610bf5610fd8565b60068054906000610c0583611555565b9190505550505050565b6000546001600160a01b031690565b6001600160a01b031660009081526003602052604090205490565b6040516370a0823160e01b81526000906001600160a01b037f000000000000000000000000000000000000000000000000000000000000000016906370a0823190610c88903090600401611167565b60206040518083038186803b158015610ca057600080fd5b505afa158015610cb4573d6000803e3d6000fd5b505050506040513d601f19601f82011682018060405250810190610cd89190611120565b905090565b60055481565b6001600160a01b0316600090815260036020526040902054151590565b600360205260009081526040902080546001909101546001600160a01b03811690600160a01b900460ff1683565b610d36610d9c565b6001600160a01b0316610d47610c0f565b6001600160a01b031614610d6d5760405162461bcd60e51b815260040161029c906113be565b6001600160a01b038116610d935760405162461bcd60e51b815260040161029c906111f3565b61036381610f2c565b3390565b610da8610d9c565b6001600160a01b0316826001600160a01b03161415610e6e577f00000000000000000000000000000000000000000000000000000000000000006001600160a01b031663a9059cbb610df8610d9c565b836040518363ffffffff1660e01b8152600401610e1692919061119f565b602060405180830381600087803b158015610e3057600080fd5b505af1158015610e44573d6000803e3d6000fd5b505050506040513d601f19601f82011682018060405250810190610e6891906110c1565b50610f28565b6001600160a01b038281166000908152600360205260409081902060010154905163a9059cbb60e01b81527f000000000000000000000000000000000000000000000000000000000000000083169263a9059cbb92610ed492911690859060040161119f565b602060405180830381600087803b158015610eee57600080fd5b505af1158015610f02573d6000803e3d6000fd5b505050506040513d601f19601f82011682018060405250810190610f2691906110c1565b505b5050565b600080546001600160a01b038381166001600160a01b0319831681178455604051919092169283917f8be0079c531659141344cd1fd0a4f28419497f9722a3daafe3b4186f6b6457e09190a35050565b600080600632610f8d60014361153e565b404286604051602001610fa39493929190611138565b6040516020818303038152906040528051906020012060001c610fc69190611570565b610fd19060016114e2565b9392505050565b60005b60025481101561105457600360006002838154811061100a57634e487b7160e01b600052603260045260246000fd5b60009182526020808320909101546001600160a01b03168352820192909252604001812090815560010180546001600160a81b03191690558061104c81611555565b915050610fdb565b5061106160026000611068565b6000600555565b508054600082559060005260206000209081019061036391905b808211156110965760008155600101611082565b5090565b6000602082840312156110ab578081fd5b81356001600160a01b0381168114610fd1578182fd5b6000602082840312156110d2578081fd5b8151610fd1816115d2565b600080604083850312156110ef578081fd5b82356110fa816115d2565b946020939093013593505050565b600060208284031215611119578081fd5b5035919050565b600060208284031215611131578081fd5b5051919050565b60609490941b6bffffffffffffffffffffffff1916845260148401929092526034830152605482015260740190565b6001600160a01b0391909116815260200190565b6001600160a01b039384168152919092166020820152604081019190915260600190565b6001600160a01b03929092168252602082015260400190565b901515815260200190565b602080825260169082015275416d6f756e7420657863656564732062616c616e636560501b604082015260600190565b60208082526026908201527f4f776e61626c653a206e6577206f776e657220697320746865207a65726f206160408201526564647265737360d01b606082015260800190565b60208082526010908201526f139bc81bdb99481c1b1858d94818995d60821b604082015260600190565b602080825260169082015275165bdd5c881d1a58dad95d081a5cc8195e1c1a5c995960521b604082015260600190565b6020808252601590820152747472616e7366657246726f6d206661696c6564202160581b604082015260600190565b60208082526027908201527f746f74616c2062657420616d6f756e742065786365656473206465616c65722060408201526662616c616e636560c81b606082015260800190565b6020808252600b908201526a105b1c9958591e4818995d60aa1b604082015260600190565b6020808252602a908201527f596f75206e65656420746f206275792061207469636b657420746f20706c617960408201526920746869732067616d6560b01b606082015260800190565b60208082526026908201527f6d696e696d756d20616d6f756e74206e656564656420746f20706c6179207468604082015265652067616d6560d01b606082015260800190565b6020808252818101527f4f776e61626c653a2063616c6c6572206973206e6f7420746865206f776e6572604082015260600190565b6020808252601f908201527f5265656e7472616e637947756172643a207265656e7472616e742063616c6c00604082015260600190565b60208082526017908201527f416d6f756e74206d757374206265206e6f74207a65726f000000000000000000604082015260600190565b90815260200190565b9283526001600160a01b039190911660208301521515604082015260600190565b9384526001600160a01b0392909216602084015260408301521515606082015260800190565b9182521515602082015260400190565b93845260ff9283166020850152911660408301521515606082015260800190565b600082198211156114f5576114f56115a6565b500190565b600060ff821660ff84168060ff03821115611517576115176115a6565b019392505050565b6000816000190483118215151615611539576115396115a6565b500290565b600082821015611550576115506115a6565b500390565b6000600019821415611569576115696115a6565b5060010190565b60008261157f5761157f6115bc565b500690565b600060ff831680611597576115976115bc565b8060ff84160691505092915050565b634e487b7160e01b600052601160045260246000fd5b634e487b7160e01b600052601260045260246000fd5b801515811461036357600080fdfea2646970667358221220bcf106d7130799cae172e382ab0991ad3fa171a448bc7490fd04a3dc8400957664736f6c63430008000033",
  "linkReferences": {},
  "deployedLinkReferences": {}
}